{
	"libraryMath.sol": {
		"TestLibrary": {
			"abi": [
				{
					"inputs": [
						{
							"internalType": "uint256",
							"name": "a",
							"type": "uint256"
						},
						{
							"internalType": "uint256",
							"name": "b",
							"type": "uint256"
						}
					],
					"name": "testDiv",
					"outputs": [
						{
							"internalType": "bool",
							"name": "",
							"type": "bool"
						},
						{
							"internalType": "uint256",
							"name": "",
							"type": "uint256"
						}
					],
					"stateMutability": "pure",
					"type": "function"
				},
				{
					"inputs": [
						{
							"internalType": "uint256",
							"name": "_value",
							"type": "uint256"
						}
					],
					"name": "testMax",
					"outputs": [
						{
							"internalType": "uint256",
							"name": "",
							"type": "uint256"
						}
					],
					"stateMutability": "view",
					"type": "function"
				},
				{
					"inputs": [],
					"name": "value",
					"outputs": [
						{
							"internalType": "uint256",
							"name": "",
							"type": "uint256"
						}
					],
					"stateMutability": "view",
					"type": "function"
				}
			],
			"devdoc": {
				"kind": "dev",
				"methods": {},
				"version": 1
			},
			"evm": {
				"assembly": "    /* \"libraryMath.sol\":2065:2763  contract TestLibrary {... */\n  mstore(0x40, 0x80)\n    /* \"libraryMath.sol\":2279:2281  10 */\n  0x0a\n    /* \"libraryMath.sol\":2256:2281  uint256 public value = 10 */\n  0x00\n  sstore\n    /* \"libraryMath.sol\":2065:2763  contract TestLibrary {... */\n  callvalue\n  dup1\n  iszero\n  tag_1\n  jumpi\n  revert(0x00, 0x00)\ntag_1:\n  pop\n  dataSize(sub_0)\n  dup1\n  dataOffset(sub_0)\n  0x00\n  codecopy\n  0x00\n  return\nstop\n\nsub_0: assembly {\n        /* \"libraryMath.sol\":2065:2763  contract TestLibrary {... */\n      mstore(0x40, 0x80)\n      callvalue\n      dup1\n      iszero\n      tag_1\n      jumpi\n      revert(0x00, 0x00)\n    tag_1:\n      pop\n      jumpi(tag_2, lt(calldatasize, 0x04))\n      shr(0xe0, calldataload(0x00))\n      dup1\n      0x3b3a7e31\n      eq\n      tag_3\n      jumpi\n      dup1\n      0x3fa4f245\n      eq\n      tag_4\n      jumpi\n      dup1\n      0xc2b2047c\n      eq\n      tag_5\n      jumpi\n    tag_2:\n      revert(0x00, 0x00)\n        /* \"libraryMath.sol\":2290:2488  function testDiv(uint256 a, uint256 b) external pure returns (bool, uint256) {... */\n    tag_3:\n      tag_6\n      0x04\n      dup1\n      calldatasize\n      sub\n      dup2\n      add\n      swap1\n      tag_7\n      swap2\n      swap1\n      tag_8\n      jump\t// in\n    tag_7:\n      tag_9\n      jump\t// in\n    tag_6:\n      mload(0x40)\n      tag_10\n      swap3\n      swap2\n      swap1\n      tag_11\n      jump\t// in\n    tag_10:\n      mload(0x40)\n      dup1\n      swap2\n      sub\n      swap1\n      return\n        /* \"libraryMath.sol\":2256:2281  uint256 public value = 10 */\n    tag_4:\n      tag_12\n      tag_13\n      jump\t// in\n    tag_12:\n      mload(0x40)\n      tag_14\n      swap2\n      swap1\n      tag_15\n      jump\t// in\n    tag_14:\n      mload(0x40)\n      dup1\n      swap2\n      sub\n      swap1\n      return\n        /* \"libraryMath.sol\":2609:2717  function testMax(uint256 _value) external view returns (uint256) {... */\n    tag_5:\n      tag_16\n      0x04\n      dup1\n      calldatasize\n      sub\n      dup2\n      add\n      swap1\n      tag_17\n      swap2\n      swap1\n      tag_18\n      jump\t// in\n    tag_17:\n      tag_19\n      jump\t// in\n    tag_16:\n      mload(0x40)\n      tag_20\n      swap2\n      swap1\n      tag_15\n      jump\t// in\n    tag_20:\n      mload(0x40)\n      dup1\n      swap2\n      sub\n      swap1\n      return\n        /* \"libraryMath.sol\":2290:2488  function testDiv(uint256 a, uint256 b) external pure returns (bool, uint256) {... */\n    tag_9:\n        /* \"libraryMath.sol\":2352:2356  bool */\n      0x00\n        /* \"libraryMath.sol\":2358:2365  uint256 */\n      0x00\n        /* \"libraryMath.sol\":2385:2402  Math.tryDiv(a, b) */\n      tag_22\n        /* \"libraryMath.sol\":2397:2398  a */\n      dup5\n        /* \"libraryMath.sol\":2400:2401  b */\n      dup5\n        /* \"libraryMath.sol\":2385:2396  Math.tryDiv */\n      tag_23\n        /* \"libraryMath.sol\":2385:2402  Math.tryDiv(a, b) */\n      jump\t// in\n    tag_22:\n        /* \"libraryMath.sol\":2378:2402  return Math.tryDiv(a, b) */\n      swap2\n      pop\n      swap2\n      pop\n        /* \"libraryMath.sol\":2290:2488  function testDiv(uint256 a, uint256 b) external pure returns (bool, uint256) {... */\n      swap3\n      pop\n      swap3\n      swap1\n      pop\n      jump\t// out\n        /* \"libraryMath.sol\":2256:2281  uint256 public value = 10 */\n    tag_13:\n      sload(0x00)\n      dup2\n      jump\t// out\n        /* \"libraryMath.sol\":2609:2717  function testMax(uint256 _value) external view returns (uint256) {... */\n    tag_19:\n        /* \"libraryMath.sol\":2665:2672  uint256 */\n      0x00\n        /* \"libraryMath.sol\":2692:2709  value.min(_value) */\n      tag_25\n        /* \"libraryMath.sol\":2702:2708  _value */\n      dup3\n        /* \"libraryMath.sol\":2692:2697  value */\n      sload(0x00)\n        /* \"libraryMath.sol\":2692:2701  value.min */\n      tag_26\n      swap1\n        /* \"libraryMath.sol\":2692:2709  value.min(_value) */\n      swap2\n      swap1\n      0xffffffff\n      and\n      jump\t// in\n    tag_25:\n        /* \"libraryMath.sol\":2685:2709  return value.min(_value) */\n      swap1\n      pop\n        /* \"libraryMath.sol\":2609:2717  function testMax(uint256 _value) external view returns (uint256) {... */\n      swap2\n      swap1\n      pop\n      jump\t// out\n        /* \"libraryMath.sol\":1297:1492  function tryDiv(uint256 a, uint256 b) internal pure returns (bool, uint256) {... */\n    tag_23:\n        /* \"libraryMath.sol\":1358:1362  bool */\n      0x00\n        /* \"libraryMath.sol\":1364:1371  uint256 */\n      0x00\n        /* \"libraryMath.sol\":1418:1419  0 */\n      0x00\n        /* \"libraryMath.sol\":1413:1414  b */\n      dup4\n        /* \"libraryMath.sol\":1413:1419  b == 0 */\n      sub\n        /* \"libraryMath.sol\":1409:1438  if (b == 0) return (false, 0) */\n      tag_28\n      jumpi\n        /* \"libraryMath.sol\":1429:1434  false */\n      0x00\n        /* \"libraryMath.sol\":1436:1437  0 */\n      0x00\n        /* \"libraryMath.sol\":1421:1438  return (false, 0) */\n      swap2\n      pop\n      swap2\n      pop\n      jump(tag_27)\n        /* \"libraryMath.sol\":1409:1438  if (b == 0) return (false, 0) */\n    tag_28:\n        /* \"libraryMath.sol\":1461:1465  true */\n      0x01\n        /* \"libraryMath.sol\":1471:1472  b */\n      dup4\n        /* \"libraryMath.sol\":1467:1468  a */\n      dup6\n        /* \"libraryMath.sol\":1467:1472  a / b */\n      dup2\n      tag_29\n      jumpi\n      tag_30\n      tag_31\n      jump\t// in\n    tag_30:\n    tag_29:\n      div\n        /* \"libraryMath.sol\":1453:1473  return (true, a / b) */\n      swap2\n      pop\n      swap2\n      pop\n        /* \"libraryMath.sol\":1297:1492  function tryDiv(uint256 a, uint256 b) internal pure returns (bool, uint256) {... */\n    tag_27:\n      swap3\n      pop\n      swap3\n      swap1\n      pop\n      jump\t// out\n        /* \"libraryMath.sol\":1952:2058  function min(uint256 a, uint256 b) internal pure returns (uint256) {... */\n    tag_26:\n        /* \"libraryMath.sol\":2010:2017  uint256 */\n      0x00\n        /* \"libraryMath.sol\":2041:2042  b */\n      dup2\n        /* \"libraryMath.sol\":2037:2038  a */\n      dup4\n        /* \"libraryMath.sol\":2037:2042  a < b */\n      lt\n        /* \"libraryMath.sol\":2037:2050  a < b ? a : b */\n      tag_33\n      jumpi\n        /* \"libraryMath.sol\":2049:2050  b */\n      dup2\n        /* \"libraryMath.sol\":2037:2050  a < b ? a : b */\n      jump(tag_34)\n    tag_33:\n        /* \"libraryMath.sol\":2045:2046  a */\n      dup3\n        /* \"libraryMath.sol\":2037:2050  a < b ? a : b */\n    tag_34:\n        /* \"libraryMath.sol\":2030:2050  return a < b ? a : b */\n      swap1\n      pop\n        /* \"libraryMath.sol\":1952:2058  function min(uint256 a, uint256 b) internal pure returns (uint256) {... */\n      swap3\n      swap2\n      pop\n      pop\n      jump\t// out\n        /* \"#utility.yul\":88:205   */\n    tag_36:\n        /* \"#utility.yul\":197:198   */\n      0x00\n        /* \"#utility.yul\":194:195   */\n      0x00\n        /* \"#utility.yul\":187:199   */\n      revert\n        /* \"#utility.yul\":334:411   */\n    tag_38:\n        /* \"#utility.yul\":371:378   */\n      0x00\n        /* \"#utility.yul\":400:405   */\n      dup2\n        /* \"#utility.yul\":389:405   */\n      swap1\n      pop\n        /* \"#utility.yul\":334:411   */\n      swap2\n      swap1\n      pop\n      jump\t// out\n        /* \"#utility.yul\":417:539   */\n    tag_39:\n        /* \"#utility.yul\":490:514   */\n      tag_50\n        /* \"#utility.yul\":508:513   */\n      dup2\n        /* \"#utility.yul\":490:514   */\n      tag_38\n      jump\t// in\n    tag_50:\n        /* \"#utility.yul\":483:488   */\n      dup2\n        /* \"#utility.yul\":480:515   */\n      eq\n        /* \"#utility.yul\":470:533   */\n      tag_51\n      jumpi\n        /* \"#utility.yul\":529:530   */\n      0x00\n        /* \"#utility.yul\":526:527   */\n      0x00\n        /* \"#utility.yul\":519:531   */\n      revert\n        /* \"#utility.yul\":470:533   */\n    tag_51:\n        /* \"#utility.yul\":417:539   */\n      pop\n      jump\t// out\n        /* \"#utility.yul\":545:684   */\n    tag_40:\n        /* \"#utility.yul\":591:596   */\n      0x00\n        /* \"#utility.yul\":629:635   */\n      dup2\n        /* \"#utility.yul\":616:636   */\n      calldataload\n        /* \"#utility.yul\":607:636   */\n      swap1\n      pop\n        /* \"#utility.yul\":645:678   */\n      tag_53\n        /* \"#utility.yul\":672:677   */\n      dup2\n        /* \"#utility.yul\":645:678   */\n      tag_39\n      jump\t// in\n    tag_53:\n        /* \"#utility.yul\":545:684   */\n      swap3\n      swap2\n      pop\n      pop\n      jump\t// out\n        /* \"#utility.yul\":690:1164   */\n    tag_8:\n        /* \"#utility.yul\":758:764   */\n      0x00\n        /* \"#utility.yul\":766:772   */\n      0x00\n        /* \"#utility.yul\":815:817   */\n      0x40\n        /* \"#utility.yul\":803:812   */\n      dup4\n        /* \"#utility.yul\":794:801   */\n      dup6\n        /* \"#utility.yul\":790:813   */\n      sub\n        /* \"#utility.yul\":786:818   */\n      slt\n        /* \"#utility.yul\":783:902   */\n      iszero\n      tag_55\n      jumpi\n        /* \"#utility.yul\":821:900   */\n      tag_56\n      tag_36\n      jump\t// in\n    tag_56:\n        /* \"#utility.yul\":783:902   */\n    tag_55:\n        /* \"#utility.yul\":941:942   */\n      0x00\n        /* \"#utility.yul\":966:1019   */\n      tag_57\n        /* \"#utility.yul\":1011:1018   */\n      dup6\n        /* \"#utility.yul\":1002:1008   */\n      dup3\n        /* \"#utility.yul\":991:1000   */\n      dup7\n        /* \"#utility.yul\":987:1009   */\n      add\n        /* \"#utility.yul\":966:1019   */\n      tag_40\n      jump\t// in\n    tag_57:\n        /* \"#utility.yul\":956:1019   */\n      swap3\n      pop\n        /* \"#utility.yul\":912:1029   */\n      pop\n        /* \"#utility.yul\":1068:1070   */\n      0x20\n        /* \"#utility.yul\":1094:1147   */\n      tag_58\n        /* \"#utility.yul\":1139:1146   */\n      dup6\n        /* \"#utility.yul\":1130:1136   */\n      dup3\n        /* \"#utility.yul\":1119:1128   */\n      dup7\n        /* \"#utility.yul\":1115:1137   */\n      add\n        /* \"#utility.yul\":1094:1147   */\n      tag_40\n      jump\t// in\n    tag_58:\n        /* \"#utility.yul\":1084:1147   */\n      swap2\n      pop\n        /* \"#utility.yul\":1039:1157   */\n      pop\n        /* \"#utility.yul\":690:1164   */\n      swap3\n      pop\n      swap3\n      swap1\n      pop\n      jump\t// out\n        /* \"#utility.yul\":1170:1260   */\n    tag_41:\n        /* \"#utility.yul\":1204:1211   */\n      0x00\n        /* \"#utility.yul\":1247:1252   */\n      dup2\n        /* \"#utility.yul\":1240:1253   */\n      iszero\n        /* \"#utility.yul\":1233:1254   */\n      iszero\n        /* \"#utility.yul\":1222:1254   */\n      swap1\n      pop\n        /* \"#utility.yul\":1170:1260   */\n      swap2\n      swap1\n      pop\n      jump\t// out\n        /* \"#utility.yul\":1266:1375   */\n    tag_42:\n        /* \"#utility.yul\":1347:1368   */\n      tag_61\n        /* \"#utility.yul\":1362:1367   */\n      dup2\n        /* \"#utility.yul\":1347:1368   */\n      tag_41\n      jump\t// in\n    tag_61:\n        /* \"#utility.yul\":1342:1345   */\n      dup3\n        /* \"#utility.yul\":1335:1369   */\n      mstore\n        /* \"#utility.yul\":1266:1375   */\n      pop\n      pop\n      jump\t// out\n        /* \"#utility.yul\":1381:1499   */\n    tag_43:\n        /* \"#utility.yul\":1468:1492   */\n      tag_63\n        /* \"#utility.yul\":1486:1491   */\n      dup2\n        /* \"#utility.yul\":1468:1492   */\n      tag_38\n      jump\t// in\n    tag_63:\n        /* \"#utility.yul\":1463:1466   */\n      dup3\n        /* \"#utility.yul\":1456:1493   */\n      mstore\n        /* \"#utility.yul\":1381:1499   */\n      pop\n      pop\n      jump\t// out\n        /* \"#utility.yul\":1505:1825   */\n    tag_11:\n        /* \"#utility.yul\":1620:1624   */\n      0x00\n        /* \"#utility.yul\":1658:1660   */\n      0x40\n        /* \"#utility.yul\":1647:1656   */\n      dup3\n        /* \"#utility.yul\":1643:1661   */\n      add\n        /* \"#utility.yul\":1635:1661   */\n      swap1\n      pop\n        /* \"#utility.yul\":1671:1736   */\n      tag_65\n        /* \"#utility.yul\":1733:1734   */\n      0x00\n        /* \"#utility.yul\":1722:1731   */\n      dup4\n        /* \"#utility.yul\":1718:1735   */\n      add\n        /* \"#utility.yul\":1709:1715   */\n      dup6\n        /* \"#utility.yul\":1671:1736   */\n      tag_42\n      jump\t// in\n    tag_65:\n        /* \"#utility.yul\":1746:1818   */\n      tag_66\n        /* \"#utility.yul\":1814:1816   */\n      0x20\n        /* \"#utility.yul\":1803:1812   */\n      dup4\n        /* \"#utility.yul\":1799:1817   */\n      add\n        /* \"#utility.yul\":1790:1796   */\n      dup5\n        /* \"#utility.yul\":1746:1818   */\n      tag_43\n      jump\t// in\n    tag_66:\n        /* \"#utility.yul\":1505:1825   */\n      swap4\n      swap3\n      pop\n      pop\n      pop\n      jump\t// out\n        /* \"#utility.yul\":1831:2053   */\n    tag_15:\n        /* \"#utility.yul\":1924:1928   */\n      0x00\n        /* \"#utility.yul\":1962:1964   */\n      0x20\n        /* \"#utility.yul\":1951:1960   */\n      dup3\n        /* \"#utility.yul\":1947:1965   */\n      add\n        /* \"#utility.yul\":1939:1965   */\n      swap1\n      pop\n        /* \"#utility.yul\":1975:2046   */\n      tag_68\n        /* \"#utility.yul\":2043:2044   */\n      0x00\n        /* \"#utility.yul\":2032:2041   */\n      dup4\n        /* \"#utility.yul\":2028:2045   */\n      add\n        /* \"#utility.yul\":2019:2025   */\n      dup5\n        /* \"#utility.yul\":1975:2046   */\n      tag_43\n      jump\t// in\n    tag_68:\n        /* \"#utility.yul\":1831:2053   */\n      swap3\n      swap2\n      pop\n      pop\n      jump\t// out\n        /* \"#utility.yul\":2059:2388   */\n    tag_18:\n        /* \"#utility.yul\":2118:2124   */\n      0x00\n        /* \"#utility.yul\":2167:2169   */\n      0x20\n        /* \"#utility.yul\":2155:2164   */\n      dup3\n        /* \"#utility.yul\":2146:2153   */\n      dup5\n        /* \"#utility.yul\":2142:2165   */\n      sub\n        /* \"#utility.yul\":2138:2170   */\n      slt\n        /* \"#utility.yul\":2135:2254   */\n      iszero\n      tag_70\n      jumpi\n        /* \"#utility.yul\":2173:2252   */\n      tag_71\n      tag_36\n      jump\t// in\n    tag_71:\n        /* \"#utility.yul\":2135:2254   */\n    tag_70:\n        /* \"#utility.yul\":2293:2294   */\n      0x00\n        /* \"#utility.yul\":2318:2371   */\n      tag_72\n        /* \"#utility.yul\":2363:2370   */\n      dup5\n        /* \"#utility.yul\":2354:2360   */\n      dup3\n        /* \"#utility.yul\":2343:2352   */\n      dup6\n        /* \"#utility.yul\":2339:2361   */\n      add\n        /* \"#utility.yul\":2318:2371   */\n      tag_40\n      jump\t// in\n    tag_72:\n        /* \"#utility.yul\":2308:2371   */\n      swap2\n      pop\n        /* \"#utility.yul\":2264:2381   */\n      pop\n        /* \"#utility.yul\":2059:2388   */\n      swap3\n      swap2\n      pop\n      pop\n      jump\t// out\n        /* \"#utility.yul\":2394:2574   */\n    tag_31:\n        /* \"#utility.yul\":2442:2519   */\n      0x4e487b7100000000000000000000000000000000000000000000000000000000\n        /* \"#utility.yul\":2439:2440   */\n      0x00\n        /* \"#utility.yul\":2432:2520   */\n      mstore\n        /* \"#utility.yul\":2539:2543   */\n      0x12\n        /* \"#utility.yul\":2536:2537   */\n      0x04\n        /* \"#utility.yul\":2529:2544   */\n      mstore\n        /* \"#utility.yul\":2563:2567   */\n      0x24\n        /* \"#utility.yul\":2560:2561   */\n      0x00\n        /* \"#utility.yul\":2553:2568   */\n      revert\n\n    auxdata: 0xa26469706673582212202affc69b1676749d528b8bf99dc727640910939ddf4ace4c8b895950c9ebd5c764736f6c634300081e0033\n}\n",
				"bytecode": {
					"linkReferences": {},
					"object": "6080604052600a5f553480156012575f5ffd5b506102b1806100205f395ff3fe608060405234801561000f575f5ffd5b506004361061003f575f3560e01c80633b3a7e31146100435780633fa4f24514610074578063c2b2047c14610092575b5f5ffd5b61005d6004803603810190610058919061017c565b6100c2565b60405161006b9291906101e3565b60405180910390f35b61007c6100d9565b604051610089919061020a565b60405180910390f35b6100ac60048036038101906100a79190610223565b6100de565b6040516100b9919061020a565b60405180910390f35b5f5f6100ce84846100fa565b915091509250929050565b5f5481565b5f6100f3825f5461012d90919063ffffffff16565b9050919050565b5f5f5f830361010e575f5f91509150610126565b60018385816101205761011f61024e565b5b04915091505b9250929050565b5f81831061013b578161013d565b825b905092915050565b5f5ffd5b5f819050919050565b61015b81610149565b8114610165575f5ffd5b50565b5f8135905061017681610152565b92915050565b5f5f6040838503121561019257610191610145565b5b5f61019f85828601610168565b92505060206101b085828601610168565b9150509250929050565b5f8115159050919050565b6101ce816101ba565b82525050565b6101dd81610149565b82525050565b5f6040820190506101f65f8301856101c5565b61020360208301846101d4565b9392505050565b5f60208201905061021d5f8301846101d4565b92915050565b5f6020828403121561023857610237610145565b5b5f61024584828501610168565b91505092915050565b7f4e487b71000000000000000000000000000000000000000000000000000000005f52601260045260245ffdfea26469706673582212202affc69b1676749d528b8bf99dc727640910939ddf4ace4c8b895950c9ebd5c764736f6c634300081e0033",
					"opcodes": "PUSH1 0x80 PUSH1 0x40 MSTORE PUSH1 0xA PUSH0 SSTORE CALLVALUE DUP1 ISZERO PUSH1 0x12 JUMPI PUSH0 PUSH0 REVERT JUMPDEST POP PUSH2 0x2B1 DUP1 PUSH2 0x20 PUSH0 CODECOPY PUSH0 RETURN INVALID PUSH1 0x80 PUSH1 0x40 MSTORE CALLVALUE DUP1 ISZERO PUSH2 0xF JUMPI PUSH0 PUSH0 REVERT JUMPDEST POP PUSH1 0x4 CALLDATASIZE LT PUSH2 0x3F JUMPI PUSH0 CALLDATALOAD PUSH1 0xE0 SHR DUP1 PUSH4 0x3B3A7E31 EQ PUSH2 0x43 JUMPI DUP1 PUSH4 0x3FA4F245 EQ PUSH2 0x74 JUMPI DUP1 PUSH4 0xC2B2047C EQ PUSH2 0x92 JUMPI JUMPDEST PUSH0 PUSH0 REVERT JUMPDEST PUSH2 0x5D PUSH1 0x4 DUP1 CALLDATASIZE SUB DUP2 ADD SWAP1 PUSH2 0x58 SWAP2 SWAP1 PUSH2 0x17C JUMP JUMPDEST PUSH2 0xC2 JUMP JUMPDEST PUSH1 0x40 MLOAD PUSH2 0x6B SWAP3 SWAP2 SWAP1 PUSH2 0x1E3 JUMP JUMPDEST PUSH1 0x40 MLOAD DUP1 SWAP2 SUB SWAP1 RETURN JUMPDEST PUSH2 0x7C PUSH2 0xD9 JUMP JUMPDEST PUSH1 0x40 MLOAD PUSH2 0x89 SWAP2 SWAP1 PUSH2 0x20A JUMP JUMPDEST PUSH1 0x40 MLOAD DUP1 SWAP2 SUB SWAP1 RETURN JUMPDEST PUSH2 0xAC PUSH1 0x4 DUP1 CALLDATASIZE SUB DUP2 ADD SWAP1 PUSH2 0xA7 SWAP2 SWAP1 PUSH2 0x223 JUMP JUMPDEST PUSH2 0xDE JUMP JUMPDEST PUSH1 0x40 MLOAD PUSH2 0xB9 SWAP2 SWAP1 PUSH2 0x20A JUMP JUMPDEST PUSH1 0x40 MLOAD DUP1 SWAP2 SUB SWAP1 RETURN JUMPDEST PUSH0 PUSH0 PUSH2 0xCE DUP5 DUP5 PUSH2 0xFA JUMP JUMPDEST SWAP2 POP SWAP2 POP SWAP3 POP SWAP3 SWAP1 POP JUMP JUMPDEST PUSH0 SLOAD DUP2 JUMP JUMPDEST PUSH0 PUSH2 0xF3 DUP3 PUSH0 SLOAD PUSH2 0x12D SWAP1 SWAP2 SWAP1 PUSH4 0xFFFFFFFF AND JUMP JUMPDEST SWAP1 POP SWAP2 SWAP1 POP JUMP JUMPDEST PUSH0 PUSH0 PUSH0 DUP4 SUB PUSH2 0x10E JUMPI PUSH0 PUSH0 SWAP2 POP SWAP2 POP PUSH2 0x126 JUMP JUMPDEST PUSH1 0x1 DUP4 DUP6 DUP2 PUSH2 0x120 JUMPI PUSH2 0x11F PUSH2 0x24E JUMP JUMPDEST JUMPDEST DIV SWAP2 POP SWAP2 POP JUMPDEST SWAP3 POP SWAP3 SWAP1 POP JUMP JUMPDEST PUSH0 DUP2 DUP4 LT PUSH2 0x13B JUMPI DUP2 PUSH2 0x13D JUMP JUMPDEST DUP3 JUMPDEST SWAP1 POP SWAP3 SWAP2 POP POP JUMP JUMPDEST PUSH0 PUSH0 REVERT JUMPDEST PUSH0 DUP2 SWAP1 POP SWAP2 SWAP1 POP JUMP JUMPDEST PUSH2 0x15B DUP2 PUSH2 0x149 JUMP JUMPDEST DUP2 EQ PUSH2 0x165 JUMPI PUSH0 PUSH0 REVERT JUMPDEST POP JUMP JUMPDEST PUSH0 DUP2 CALLDATALOAD SWAP1 POP PUSH2 0x176 DUP2 PUSH2 0x152 JUMP JUMPDEST SWAP3 SWAP2 POP POP JUMP JUMPDEST PUSH0 PUSH0 PUSH1 0x40 DUP4 DUP6 SUB SLT ISZERO PUSH2 0x192 JUMPI PUSH2 0x191 PUSH2 0x145 JUMP JUMPDEST JUMPDEST PUSH0 PUSH2 0x19F DUP6 DUP3 DUP7 ADD PUSH2 0x168 JUMP JUMPDEST SWAP3 POP POP PUSH1 0x20 PUSH2 0x1B0 DUP6 DUP3 DUP7 ADD PUSH2 0x168 JUMP JUMPDEST SWAP2 POP POP SWAP3 POP SWAP3 SWAP1 POP JUMP JUMPDEST PUSH0 DUP2 ISZERO ISZERO SWAP1 POP SWAP2 SWAP1 POP JUMP JUMPDEST PUSH2 0x1CE DUP2 PUSH2 0x1BA JUMP JUMPDEST DUP3 MSTORE POP POP JUMP JUMPDEST PUSH2 0x1DD DUP2 PUSH2 0x149 JUMP JUMPDEST DUP3 MSTORE POP POP JUMP JUMPDEST PUSH0 PUSH1 0x40 DUP3 ADD SWAP1 POP PUSH2 0x1F6 PUSH0 DUP4 ADD DUP6 PUSH2 0x1C5 JUMP JUMPDEST PUSH2 0x203 PUSH1 0x20 DUP4 ADD DUP5 PUSH2 0x1D4 JUMP JUMPDEST SWAP4 SWAP3 POP POP POP JUMP JUMPDEST PUSH0 PUSH1 0x20 DUP3 ADD SWAP1 POP PUSH2 0x21D PUSH0 DUP4 ADD DUP5 PUSH2 0x1D4 JUMP JUMPDEST SWAP3 SWAP2 POP POP JUMP JUMPDEST PUSH0 PUSH1 0x20 DUP3 DUP5 SUB SLT ISZERO PUSH2 0x238 JUMPI PUSH2 0x237 PUSH2 0x145 JUMP JUMPDEST JUMPDEST PUSH0 PUSH2 0x245 DUP5 DUP3 DUP6 ADD PUSH2 0x168 JUMP JUMPDEST SWAP2 POP POP SWAP3 SWAP2 POP POP JUMP JUMPDEST PUSH32 0x4E487B7100000000000000000000000000000000000000000000000000000000 PUSH0 MSTORE PUSH1 0x12 PUSH1 0x4 MSTORE PUSH1 0x24 PUSH0 REVERT INVALID LOG2 PUSH5 0x6970667358 0x22 SLT KECCAK256 0x2A SELFDESTRUCT 0xC6 SWAP12 AND PUSH23 0x749D528B8BF99DC727640910939DDF4ACE4C8B895950C9 0xEB 0xD5 0xC7 PUSH5 0x736F6C6343 STOP ADDMOD 0x1E STOP CALLER "
				},
				"gasEstimates": {
					"creation": {
						"codeDepositCost": "137800",
						"executionCost": "22286",
						"totalCost": "160086"
					},
					"external": {
						"testDiv(uint256,uint256)": "infinite",
						"testMax(uint256)": "infinite",
						"value()": "2424"
					}
				},
				"methodIdentifiers": {
					"testDiv(uint256,uint256)": "3b3a7e31",
					"testMax(uint256)": "c2b2047c",
					"value()": "3fa4f245"
				}
			},
			"storageLayout": {
				"storage": [
					{
						"astId": 198,
						"contract": "libraryMath.sol:TestLibrary",
						"label": "value",
						"offset": 0,
						"slot": "0",
						"type": "t_uint256"
					}
				],
				"types": {
					"t_uint256": {
						"encoding": "inplace",
						"label": "uint256",
						"numberOfBytes": "32"
					}
				}
			},
			"userdoc": {
				"kind": "user",
				"methods": {},
				"version": 1
			}
		}
	}
}