{
	"data": {
		"bytecode": {
			"linkReferences": {},
			"object": "60a0604052604051610c29380380610c29833981810160405281019061002591906102ef565b855f5f6101000a81548173ffffffffffffffffffffffffffffffffffffffff021916908373ffffffffffffffffffffffffffffffffffffffff1602179055508460019081610073919061059b565b50836002819055508260035f6101000a81548173ffffffffffffffffffffffffffffffffffffffff021916908373ffffffffffffffffffffffffffffffffffffffff1602179055508160808181525050806004819055503060055f6101000a81548173ffffffffffffffffffffffffffffffffffffffff021916908373ffffffffffffffffffffffffffffffffffffffff16021790555050505050505061066a565b5f604051905090565b5f5ffd5b5f5ffd5b5f73ffffffffffffffffffffffffffffffffffffffff82169050919050565b5f61014f82610126565b9050919050565b61015f81610145565b8114610169575f5ffd5b50565b5f8151905061017a81610156565b92915050565b5f5ffd5b5f5ffd5b5f601f19601f8301169050919050565b7f4e487b71000000000000000000000000000000000000000000000000000000005f52604160045260245ffd5b6101ce82610188565b810181811067ffffffffffffffff821117156101ed576101ec610198565b5b80604052505050565b5f6101ff610115565b905061020b82826101c5565b919050565b5f67ffffffffffffffff82111561022a57610229610198565b5b61023382610188565b9050602081019050919050565b8281835e5f83830152505050565b5f61026061025b84610210565b6101f6565b90508281526020810184848401111561027c5761027b610184565b5b610287848285610240565b509392505050565b5f82601f8301126102a3576102a2610180565b5b81516102b384826020860161024e565b91505092915050565b5f819050919050565b6102ce816102bc565b81146102d8575f5ffd5b50565b5f815190506102e9816102c5565b92915050565b5f5f5f5f5f5f60c087890312156103095761030861011e565b5b5f61031689828a0161016c565b965050602087015167ffffffffffffffff81111561033757610336610122565b5b61034389828a0161028f565b955050604061035489828a016102db565b945050606061036589828a0161016c565b935050608061037689828a016102db565b92505060a061038789828a016102db565b9150509295509295509295565b5f81519050919050565b7f4e487b71000000000000000000000000000000000000000000000000000000005f52602260045260245ffd5b5f60028204905060018216806103e257607f821691505b6020821081036103f5576103f461039e565b5b50919050565b5f819050815f5260205f209050919050565b5f6020601f8301049050919050565b5f82821b905092915050565b5f600883026104577fffffffffffffffffffffffffffffffffffffffffffffffffffffffffffffffff8261041c565b610461868361041c565b95508019841693508086168417925050509392505050565b5f819050919050565b5f61049c610497610492846102bc565b610479565b6102bc565b9050919050565b5f819050919050565b6104b583610482565b6104c96104c1826104a3565b848454610428565b825550505050565b5f5f905090565b6104e06104d1565b6104eb8184846104ac565b505050565b5b8181101561050e576105035f826104d8565b6001810190506104f1565b5050565b601f82111561055357610524816103fb565b61052d8461040d565b8101602085101561053c578190505b6105506105488561040d565b8301826104f0565b50505b505050565b5f82821c905092915050565b5f6105735f1984600802610558565b1980831691505092915050565b5f61058b8383610564565b9150826002028217905092915050565b6105a482610394565b67ffffffffffffffff8111156105bd576105bc610198565b5b6105c782546103cb565b6105d2828285610512565b5f60209050601f831160018114610603575f84156105f1578287015190505b6105fb8582610580565b865550610662565b601f198416610611866103fb565b5f5b8281101561063857848901518255600182019150602085019450602081019050610613565b868310156106555784890151610651601f891682610564565b8355505b6001600288020188555050505b505050505050565b6080516105a76106825f395f61028001526105a75ff3fe608060405234801561000f575f5ffd5b5060043610610086575f3560e01c8063abff011011610059578063abff011014610102578063cb47ad3c14610120578063e14891911461013e578063e58a4b501461015c57610086565b80630ad9d0521461008a5780630b23d860146100a85780631e985e7c146100c65780638da5cb5b146100e4575b5f5ffd5b610092610178565b60405161009f91906103aa565b60405180910390f35b6100b0610204565b6040516100bd91906103e2565b60405180910390f35b6100ce61020a565b6040516100db91906103e2565b60405180910390f35b6100ec610210565b6040516100f9919061043a565b60405180910390f35b61010a610234565b604051610117919061043a565b60405180910390f35b610128610259565b604051610135919061043a565b60405180910390f35b61014661027e565b60405161015391906103e2565b60405180910390f35b61017660048036038101906101719190610481565b6102a2565b005b60018054610185906104d9565b80601f01602080910402602001604051908101604052809291908181526020018280546101b1906104d9565b80156101fc5780601f106101d3576101008083540402835291602001916101fc565b820191905f5260205f20905b8154815290600101906020018083116101df57829003601f168201915b505050505081565b60045481565b60025481565b5f5f9054906101000a900473ffffffffffffffffffffffffffffffffffffffff1681565b60035f9054906101000a900473ffffffffffffffffffffffffffffffffffffffff1681565b60055f9054906101000a900473ffffffffffffffffffffffffffffffffffffffff1681565b7f000000000000000000000000000000000000000000000000000000000000000081565b5f5f9054906101000a900473ffffffffffffffffffffffffffffffffffffffff1673ffffffffffffffffffffffffffffffffffffffff163373ffffffffffffffffffffffffffffffffffffffff1614610330576040517f08c379a000000000000000000000000000000000000000000000000000000000815260040161032790610553565b60405180910390fd5b8060048190555050565b5f81519050919050565b5f82825260208201905092915050565b8281835e5f83830152505050565b5f601f19601f8301169050919050565b5f61037c8261033a565b6103868185610344565b9350610396818560208601610354565b61039f81610362565b840191505092915050565b5f6020820190508181035f8301526103c28184610372565b905092915050565b5f819050919050565b6103dc816103ca565b82525050565b5f6020820190506103f55f8301846103d3565b92915050565b5f73ffffffffffffffffffffffffffffffffffffffff82169050919050565b5f610424826103fb565b9050919050565b6104348161041a565b82525050565b5f60208201905061044d5f83018461042b565b92915050565b5f5ffd5b610460816103ca565b811461046a575f5ffd5b50565b5f8135905061047b81610457565b92915050565b5f6020828403121561049657610495610453565b5b5f6104a38482850161046d565b91505092915050565b7f4e487b71000000000000000000000000000000000000000000000000000000005f52602260045260245ffd5b5f60028204905060018216806104f057607f821691505b602082108103610503576105026104ac565b5b50919050565b7f6e6f74206f776e657200000000000000000000000000000000000000000000005f82015250565b5f61053d600983610344565b915061054882610509565b602082019050919050565b5f6020820190508181035f83015261056a81610531565b905091905056fea264697066735822122099e86e3aecf9b3680d2655d09315ff73aec78546714d2afda9bf0b287bbabfba64736f6c634300081e0033",
			"opcodes": "PUSH1 0xA0 PUSH1 0x40 MSTORE PUSH1 0x40 MLOAD PUSH2 0xC29 CODESIZE SUB DUP1 PUSH2 0xC29 DUP4 CODECOPY DUP2 DUP2 ADD PUSH1 0x40 MSTORE DUP2 ADD SWAP1 PUSH2 0x25 SWAP2 SWAP1 PUSH2 0x2EF JUMP JUMPDEST DUP6 PUSH0 PUSH0 PUSH2 0x100 EXP DUP2 SLOAD DUP2 PUSH20 0xFFFFFFFFFFFFFFFFFFFFFFFFFFFFFFFFFFFFFFFF MUL NOT AND SWAP1 DUP4 PUSH20 0xFFFFFFFFFFFFFFFFFFFFFFFFFFFFFFFFFFFFFFFF AND MUL OR SWAP1 SSTORE POP DUP5 PUSH1 0x1 SWAP1 DUP2 PUSH2 0x73 SWAP2 SWAP1 PUSH2 0x59B JUMP JUMPDEST POP DUP4 PUSH1 0x2 DUP2 SWAP1 SSTORE POP DUP3 PUSH1 0x3 PUSH0 PUSH2 0x100 EXP DUP2 SLOAD DUP2 PUSH20 0xFFFFFFFFFFFFFFFFFFFFFFFFFFFFFFFFFFFFFFFF MUL NOT AND SWAP1 DUP4 PUSH20 0xFFFFFFFFFFFFFFFFFFFFFFFFFFFFFFFFFFFFFFFF AND MUL OR SWAP1 SSTORE POP DUP2 PUSH1 0x80 DUP2 DUP2 MSTORE POP POP DUP1 PUSH1 0x4 DUP2 SWAP1 SSTORE POP ADDRESS PUSH1 0x5 PUSH0 PUSH2 0x100 EXP DUP2 SLOAD DUP2 PUSH20 0xFFFFFFFFFFFFFFFFFFFFFFFFFFFFFFFFFFFFFFFF MUL NOT AND SWAP1 DUP4 PUSH20 0xFFFFFFFFFFFFFFFFFFFFFFFFFFFFFFFFFFFFFFFF AND MUL OR SWAP1 SSTORE POP POP POP POP POP POP POP PUSH2 0x66A JUMP JUMPDEST PUSH0 PUSH1 0x40 MLOAD SWAP1 POP SWAP1 JUMP JUMPDEST PUSH0 PUSH0 REVERT JUMPDEST PUSH0 PUSH0 REVERT JUMPDEST PUSH0 PUSH20 0xFFFFFFFFFFFFFFFFFFFFFFFFFFFFFFFFFFFFFFFF DUP3 AND SWAP1 POP SWAP2 SWAP1 POP JUMP JUMPDEST PUSH0 PUSH2 0x14F DUP3 PUSH2 0x126 JUMP JUMPDEST SWAP1 POP SWAP2 SWAP1 POP JUMP JUMPDEST PUSH2 0x15F DUP2 PUSH2 0x145 JUMP JUMPDEST DUP2 EQ PUSH2 0x169 JUMPI PUSH0 PUSH0 REVERT JUMPDEST POP JUMP JUMPDEST PUSH0 DUP2 MLOAD SWAP1 POP PUSH2 0x17A DUP2 PUSH2 0x156 JUMP JUMPDEST SWAP3 SWAP2 POP POP JUMP JUMPDEST PUSH0 PUSH0 REVERT JUMPDEST PUSH0 PUSH0 REVERT JUMPDEST PUSH0 PUSH1 0x1F NOT PUSH1 0x1F DUP4 ADD AND SWAP1 POP SWAP2 SWAP1 POP JUMP JUMPDEST PUSH32 0x4E487B7100000000000000000000000000000000000000000000000000000000 PUSH0 MSTORE PUSH1 0x41 PUSH1 0x4 MSTORE PUSH1 0x24 PUSH0 REVERT JUMPDEST PUSH2 0x1CE DUP3 PUSH2 0x188 JUMP JUMPDEST DUP2 ADD DUP2 DUP2 LT PUSH8 0xFFFFFFFFFFFFFFFF DUP3 GT OR ISZERO PUSH2 0x1ED JUMPI PUSH2 0x1EC PUSH2 0x198 JUMP JUMPDEST JUMPDEST DUP1 PUSH1 0x40 MSTORE POP POP POP JUMP JUMPDEST PUSH0 PUSH2 0x1FF PUSH2 0x115 JUMP JUMPDEST SWAP1 POP PUSH2 0x20B DUP3 DUP3 PUSH2 0x1C5 JUMP JUMPDEST SWAP2 SWAP1 POP JUMP JUMPDEST PUSH0 PUSH8 0xFFFFFFFFFFFFFFFF DUP3 GT ISZERO PUSH2 0x22A JUMPI PUSH2 0x229 PUSH2 0x198 JUMP JUMPDEST JUMPDEST PUSH2 0x233 DUP3 PUSH2 0x188 JUMP JUMPDEST SWAP1 POP PUSH1 0x20 DUP2 ADD SWAP1 POP SWAP2 SWAP1 POP JUMP JUMPDEST DUP3 DUP2 DUP4 MCOPY PUSH0 DUP4 DUP4 ADD MSTORE POP POP POP JUMP JUMPDEST PUSH0 PUSH2 0x260 PUSH2 0x25B DUP5 PUSH2 0x210 JUMP JUMPDEST PUSH2 0x1F6 JUMP JUMPDEST SWAP1 POP DUP3 DUP2 MSTORE PUSH1 0x20 DUP2 ADD DUP5 DUP5 DUP5 ADD GT ISZERO PUSH2 0x27C JUMPI PUSH2 0x27B PUSH2 0x184 JUMP JUMPDEST JUMPDEST PUSH2 0x287 DUP5 DUP3 DUP6 PUSH2 0x240 JUMP JUMPDEST POP SWAP4 SWAP3 POP POP POP JUMP JUMPDEST PUSH0 DUP3 PUSH1 0x1F DUP4 ADD SLT PUSH2 0x2A3 JUMPI PUSH2 0x2A2 PUSH2 0x180 JUMP JUMPDEST JUMPDEST DUP2 MLOAD PUSH2 0x2B3 DUP5 DUP3 PUSH1 0x20 DUP7 ADD PUSH2 0x24E JUMP JUMPDEST SWAP2 POP POP SWAP3 SWAP2 POP POP JUMP JUMPDEST PUSH0 DUP2 SWAP1 POP SWAP2 SWAP1 POP JUMP JUMPDEST PUSH2 0x2CE DUP2 PUSH2 0x2BC JUMP JUMPDEST DUP2 EQ PUSH2 0x2D8 JUMPI PUSH0 PUSH0 REVERT JUMPDEST POP JUMP JUMPDEST PUSH0 DUP2 MLOAD SWAP1 POP PUSH2 0x2E9 DUP2 PUSH2 0x2C5 JUMP JUMPDEST SWAP3 SWAP2 POP POP JUMP JUMPDEST PUSH0 PUSH0 PUSH0 PUSH0 PUSH0 PUSH0 PUSH1 0xC0 DUP8 DUP10 SUB SLT ISZERO PUSH2 0x309 JUMPI PUSH2 0x308 PUSH2 0x11E JUMP JUMPDEST JUMPDEST PUSH0 PUSH2 0x316 DUP10 DUP3 DUP11 ADD PUSH2 0x16C JUMP JUMPDEST SWAP7 POP POP PUSH1 0x20 DUP8 ADD MLOAD PUSH8 0xFFFFFFFFFFFFFFFF DUP2 GT ISZERO PUSH2 0x337 JUMPI PUSH2 0x336 PUSH2 0x122 JUMP JUMPDEST JUMPDEST PUSH2 0x343 DUP10 DUP3 DUP11 ADD PUSH2 0x28F JUMP JUMPDEST SWAP6 POP POP PUSH1 0x40 PUSH2 0x354 DUP10 DUP3 DUP11 ADD PUSH2 0x2DB JUMP JUMPDEST SWAP5 POP POP PUSH1 0x60 PUSH2 0x365 DUP10 DUP3 DUP11 ADD PUSH2 0x16C JUMP JUMPDEST SWAP4 POP POP PUSH1 0x80 PUSH2 0x376 DUP10 DUP3 DUP11 ADD PUSH2 0x2DB JUMP JUMPDEST SWAP3 POP POP PUSH1 0xA0 PUSH2 0x387 DUP10 DUP3 DUP11 ADD PUSH2 0x2DB JUMP JUMPDEST SWAP2 POP POP SWAP3 SWAP6 POP SWAP3 SWAP6 POP SWAP3 SWAP6 JUMP JUMPDEST PUSH0 DUP2 MLOAD SWAP1 POP SWAP2 SWAP1 POP JUMP JUMPDEST PUSH32 0x4E487B7100000000000000000000000000000000000000000000000000000000 PUSH0 MSTORE PUSH1 0x22 PUSH1 0x4 MSTORE PUSH1 0x24 PUSH0 REVERT JUMPDEST PUSH0 PUSH1 0x2 DUP3 DIV SWAP1 POP PUSH1 0x1 DUP3 AND DUP1 PUSH2 0x3E2 JUMPI PUSH1 0x7F DUP3 AND SWAP2 POP JUMPDEST PUSH1 0x20 DUP3 LT DUP2 SUB PUSH2 0x3F5 JUMPI PUSH2 0x3F4 PUSH2 0x39E JUMP JUMPDEST JUMPDEST POP SWAP2 SWAP1 POP JUMP JUMPDEST PUSH0 DUP2 SWAP1 POP DUP2 PUSH0 MSTORE PUSH1 0x20 PUSH0 KECCAK256 SWAP1 POP SWAP2 SWAP1 POP JUMP JUMPDEST PUSH0 PUSH1 0x20 PUSH1 0x1F DUP4 ADD DIV SWAP1 POP SWAP2 SWAP1 POP JUMP JUMPDEST PUSH0 DUP3 DUP3 SHL SWAP1 POP SWAP3 SWAP2 POP POP JUMP JUMPDEST PUSH0 PUSH1 0x8 DUP4 MUL PUSH2 0x457 PUSH32 0xFFFFFFFFFFFFFFFFFFFFFFFFFFFFFFFFFFFFFFFFFFFFFFFFFFFFFFFFFFFFFFFF DUP3 PUSH2 0x41C JUMP JUMPDEST PUSH2 0x461 DUP7 DUP4 PUSH2 0x41C JUMP JUMPDEST SWAP6 POP DUP1 NOT DUP5 AND SWAP4 POP DUP1 DUP7 AND DUP5 OR SWAP3 POP POP POP SWAP4 SWAP3 POP POP POP JUMP JUMPDEST PUSH0 DUP2 SWAP1 POP SWAP2 SWAP1 POP JUMP JUMPDEST PUSH0 PUSH2 0x49C PUSH2 0x497 PUSH2 0x492 DUP5 PUSH2 0x2BC JUMP JUMPDEST PUSH2 0x479 JUMP JUMPDEST PUSH2 0x2BC JUMP JUMPDEST SWAP1 POP SWAP2 SWAP1 POP JUMP JUMPDEST PUSH0 DUP2 SWAP1 POP SWAP2 SWAP1 POP JUMP JUMPDEST PUSH2 0x4B5 DUP4 PUSH2 0x482 JUMP JUMPDEST PUSH2 0x4C9 PUSH2 0x4C1 DUP3 PUSH2 0x4A3 JUMP JUMPDEST DUP5 DUP5 SLOAD PUSH2 0x428 JUMP JUMPDEST DUP3 SSTORE POP POP POP POP JUMP JUMPDEST PUSH0 PUSH0 SWAP1 POP SWAP1 JUMP JUMPDEST PUSH2 0x4E0 PUSH2 0x4D1 JUMP JUMPDEST PUSH2 0x4EB DUP2 DUP5 DUP5 PUSH2 0x4AC JUMP JUMPDEST POP POP POP JUMP JUMPDEST JUMPDEST DUP2 DUP2 LT ISZERO PUSH2 0x50E JUMPI PUSH2 0x503 PUSH0 DUP3 PUSH2 0x4D8 JUMP JUMPDEST PUSH1 0x1 DUP2 ADD SWAP1 POP PUSH2 0x4F1 JUMP JUMPDEST POP POP JUMP JUMPDEST PUSH1 0x1F DUP3 GT ISZERO PUSH2 0x553 JUMPI PUSH2 0x524 DUP2 PUSH2 0x3FB JUMP JUMPDEST PUSH2 0x52D DUP5 PUSH2 0x40D JUMP JUMPDEST DUP2 ADD PUSH1 0x20 DUP6 LT ISZERO PUSH2 0x53C JUMPI DUP2 SWAP1 POP JUMPDEST PUSH2 0x550 PUSH2 0x548 DUP6 PUSH2 0x40D JUMP JUMPDEST DUP4 ADD DUP3 PUSH2 0x4F0 JUMP JUMPDEST POP POP JUMPDEST POP POP POP JUMP JUMPDEST PUSH0 DUP3 DUP3 SHR SWAP1 POP SWAP3 SWAP2 POP POP JUMP JUMPDEST PUSH0 PUSH2 0x573 PUSH0 NOT DUP5 PUSH1 0x8 MUL PUSH2 0x558 JUMP JUMPDEST NOT DUP1 DUP4 AND SWAP2 POP POP SWAP3 SWAP2 POP POP JUMP JUMPDEST PUSH0 PUSH2 0x58B DUP4 DUP4 PUSH2 0x564 JUMP JUMPDEST SWAP2 POP DUP3 PUSH1 0x2 MUL DUP3 OR SWAP1 POP SWAP3 SWAP2 POP POP JUMP JUMPDEST PUSH2 0x5A4 DUP3 PUSH2 0x394 JUMP JUMPDEST PUSH8 0xFFFFFFFFFFFFFFFF DUP2 GT ISZERO PUSH2 0x5BD JUMPI PUSH2 0x5BC PUSH2 0x198 JUMP JUMPDEST JUMPDEST PUSH2 0x5C7 DUP3 SLOAD PUSH2 0x3CB JUMP JUMPDEST PUSH2 0x5D2 DUP3 DUP3 DUP6 PUSH2 0x512 JUMP JUMPDEST PUSH0 PUSH1 0x20 SWAP1 POP PUSH1 0x1F DUP4 GT PUSH1 0x1 DUP2 EQ PUSH2 0x603 JUMPI PUSH0 DUP5 ISZERO PUSH2 0x5F1 JUMPI DUP3 DUP8 ADD MLOAD SWAP1 POP JUMPDEST PUSH2 0x5FB DUP6 DUP3 PUSH2 0x580 JUMP JUMPDEST DUP7 SSTORE POP PUSH2 0x662 JUMP JUMPDEST PUSH1 0x1F NOT DUP5 AND PUSH2 0x611 DUP7 PUSH2 0x3FB JUMP JUMPDEST PUSH0 JUMPDEST DUP3 DUP2 LT ISZERO PUSH2 0x638 JUMPI DUP5 DUP10 ADD MLOAD DUP3 SSTORE PUSH1 0x1 DUP3 ADD SWAP2 POP PUSH1 0x20 DUP6 ADD SWAP5 POP PUSH1 0x20 DUP2 ADD SWAP1 POP PUSH2 0x613 JUMP JUMPDEST DUP7 DUP4 LT ISZERO PUSH2 0x655 JUMPI DUP5 DUP10 ADD MLOAD PUSH2 0x651 PUSH1 0x1F DUP10 AND DUP3 PUSH2 0x564 JUMP JUMPDEST DUP4 SSTORE POP JUMPDEST PUSH1 0x1 PUSH1 0x2 DUP9 MUL ADD DUP9 SSTORE POP POP POP JUMPDEST POP POP POP POP POP POP JUMP JUMPDEST PUSH1 0x80 MLOAD PUSH2 0x5A7 PUSH2 0x682 PUSH0 CODECOPY PUSH0 PUSH2 0x280 ADD MSTORE PUSH2 0x5A7 PUSH0 RETURN INVALID PUSH1 0x80 PUSH1 0x40 MSTORE CALLVALUE DUP1 ISZERO PUSH2 0xF JUMPI PUSH0 PUSH0 REVERT JUMPDEST POP PUSH1 0x4 CALLDATASIZE LT PUSH2 0x86 JUMPI PUSH0 CALLDATALOAD PUSH1 0xE0 SHR DUP1 PUSH4 0xABFF0110 GT PUSH2 0x59 JUMPI DUP1 PUSH4 0xABFF0110 EQ PUSH2 0x102 JUMPI DUP1 PUSH4 0xCB47AD3C EQ PUSH2 0x120 JUMPI DUP1 PUSH4 0xE1489191 EQ PUSH2 0x13E JUMPI DUP1 PUSH4 0xE58A4B50 EQ PUSH2 0x15C JUMPI PUSH2 0x86 JUMP JUMPDEST DUP1 PUSH4 0xAD9D052 EQ PUSH2 0x8A JUMPI DUP1 PUSH4 0xB23D860 EQ PUSH2 0xA8 JUMPI DUP1 PUSH4 0x1E985E7C EQ PUSH2 0xC6 JUMPI DUP1 PUSH4 0x8DA5CB5B EQ PUSH2 0xE4 JUMPI JUMPDEST PUSH0 PUSH0 REVERT JUMPDEST PUSH2 0x92 PUSH2 0x178 JUMP JUMPDEST PUSH1 0x40 MLOAD PUSH2 0x9F SWAP2 SWAP1 PUSH2 0x3AA JUMP JUMPDEST PUSH1 0x40 MLOAD DUP1 SWAP2 SUB SWAP1 RETURN JUMPDEST PUSH2 0xB0 PUSH2 0x204 JUMP JUMPDEST PUSH1 0x40 MLOAD PUSH2 0xBD SWAP2 SWAP1 PUSH2 0x3E2 JUMP JUMPDEST PUSH1 0x40 MLOAD DUP1 SWAP2 SUB SWAP1 RETURN JUMPDEST PUSH2 0xCE PUSH2 0x20A JUMP JUMPDEST PUSH1 0x40 MLOAD PUSH2 0xDB SWAP2 SWAP1 PUSH2 0x3E2 JUMP JUMPDEST PUSH1 0x40 MLOAD DUP1 SWAP2 SUB SWAP1 RETURN JUMPDEST PUSH2 0xEC PUSH2 0x210 JUMP JUMPDEST PUSH1 0x40 MLOAD PUSH2 0xF9 SWAP2 SWAP1 PUSH2 0x43A JUMP JUMPDEST PUSH1 0x40 MLOAD DUP1 SWAP2 SUB SWAP1 RETURN JUMPDEST PUSH2 0x10A PUSH2 0x234 JUMP JUMPDEST PUSH1 0x40 MLOAD PUSH2 0x117 SWAP2 SWAP1 PUSH2 0x43A JUMP JUMPDEST PUSH1 0x40 MLOAD DUP1 SWAP2 SUB SWAP1 RETURN JUMPDEST PUSH2 0x128 PUSH2 0x259 JUMP JUMPDEST PUSH1 0x40 MLOAD PUSH2 0x135 SWAP2 SWAP1 PUSH2 0x43A JUMP JUMPDEST PUSH1 0x40 MLOAD DUP1 SWAP2 SUB SWAP1 RETURN JUMPDEST PUSH2 0x146 PUSH2 0x27E JUMP JUMPDEST PUSH1 0x40 MLOAD PUSH2 0x153 SWAP2 SWAP1 PUSH2 0x3E2 JUMP JUMPDEST PUSH1 0x40 MLOAD DUP1 SWAP2 SUB SWAP1 RETURN JUMPDEST PUSH2 0x176 PUSH1 0x4 DUP1 CALLDATASIZE SUB DUP2 ADD SWAP1 PUSH2 0x171 SWAP2 SWAP1 PUSH2 0x481 JUMP JUMPDEST PUSH2 0x2A2 JUMP JUMPDEST STOP JUMPDEST PUSH1 0x1 DUP1 SLOAD PUSH2 0x185 SWAP1 PUSH2 0x4D9 JUMP JUMPDEST DUP1 PUSH1 0x1F ADD PUSH1 0x20 DUP1 SWAP2 DIV MUL PUSH1 0x20 ADD PUSH1 0x40 MLOAD SWAP1 DUP2 ADD PUSH1 0x40 MSTORE DUP1 SWAP3 SWAP2 SWAP1 DUP2 DUP2 MSTORE PUSH1 0x20 ADD DUP3 DUP1 SLOAD PUSH2 0x1B1 SWAP1 PUSH2 0x4D9 JUMP JUMPDEST DUP1 ISZERO PUSH2 0x1FC JUMPI DUP1 PUSH1 0x1F LT PUSH2 0x1D3 JUMPI PUSH2 0x100 DUP1 DUP4 SLOAD DIV MUL DUP4 MSTORE SWAP2 PUSH1 0x20 ADD SWAP2 PUSH2 0x1FC JUMP JUMPDEST DUP3 ADD SWAP2 SWAP1 PUSH0 MSTORE PUSH1 0x20 PUSH0 KECCAK256 SWAP1 JUMPDEST DUP2 SLOAD DUP2 MSTORE SWAP1 PUSH1 0x1 ADD SWAP1 PUSH1 0x20 ADD DUP1 DUP4 GT PUSH2 0x1DF JUMPI DUP3 SWAP1 SUB PUSH1 0x1F AND DUP3 ADD SWAP2 JUMPDEST POP POP POP POP POP DUP2 JUMP JUMPDEST PUSH1 0x4 SLOAD DUP2 JUMP JUMPDEST PUSH1 0x2 SLOAD DUP2 JUMP JUMPDEST PUSH0 PUSH0 SWAP1 SLOAD SWAP1 PUSH2 0x100 EXP SWAP1 DIV PUSH20 0xFFFFFFFFFFFFFFFFFFFFFFFFFFFFFFFFFFFFFFFF AND DUP2 JUMP JUMPDEST PUSH1 0x3 PUSH0 SWAP1 SLOAD SWAP1 PUSH2 0x100 EXP SWAP1 DIV PUSH20 0xFFFFFFFFFFFFFFFFFFFFFFFFFFFFFFFFFFFFFFFF AND DUP2 JUMP JUMPDEST PUSH1 0x5 PUSH0 SWAP1 SLOAD SWAP1 PUSH2 0x100 EXP SWAP1 DIV PUSH20 0xFFFFFFFFFFFFFFFFFFFFFFFFFFFFFFFFFFFFFFFF AND DUP2 JUMP JUMPDEST PUSH32 0x0 DUP2 JUMP JUMPDEST PUSH0 PUSH0 SWAP1 SLOAD SWAP1 PUSH2 0x100 EXP SWAP1 DIV PUSH20 0xFFFFFFFFFFFFFFFFFFFFFFFFFFFFFFFFFFFFFFFF AND PUSH20 0xFFFFFFFFFFFFFFFFFFFFFFFFFFFFFFFFFFFFFFFF AND CALLER PUSH20 0xFFFFFFFFFFFFFFFFFFFFFFFFFFFFFFFFFFFFFFFF AND EQ PUSH2 0x330 JUMPI PUSH1 0x40 MLOAD PUSH32 0x8C379A000000000000000000000000000000000000000000000000000000000 DUP2 MSTORE PUSH1 0x4 ADD PUSH2 0x327 SWAP1 PUSH2 0x553 JUMP JUMPDEST PUSH1 0x40 MLOAD DUP1 SWAP2 SUB SWAP1 REVERT JUMPDEST DUP1 PUSH1 0x4 DUP2 SWAP1 SSTORE POP POP JUMP JUMPDEST PUSH0 DUP2 MLOAD SWAP1 POP SWAP2 SWAP1 POP JUMP JUMPDEST PUSH0 DUP3 DUP3 MSTORE PUSH1 0x20 DUP3 ADD SWAP1 POP SWAP3 SWAP2 POP POP JUMP JUMPDEST DUP3 DUP2 DUP4 MCOPY PUSH0 DUP4 DUP4 ADD MSTORE POP POP POP JUMP JUMPDEST PUSH0 PUSH1 0x1F NOT PUSH1 0x1F DUP4 ADD AND SWAP1 POP SWAP2 SWAP1 POP JUMP JUMPDEST PUSH0 PUSH2 0x37C DUP3 PUSH2 0x33A JUMP JUMPDEST PUSH2 0x386 DUP2 DUP6 PUSH2 0x344 JUMP JUMPDEST SWAP4 POP PUSH2 0x396 DUP2 DUP6 PUSH1 0x20 DUP7 ADD PUSH2 0x354 JUMP JUMPDEST PUSH2 0x39F DUP2 PUSH2 0x362 JUMP JUMPDEST DUP5 ADD SWAP2 POP POP SWAP3 SWAP2 POP POP JUMP JUMPDEST PUSH0 PUSH1 0x20 DUP3 ADD SWAP1 POP DUP2 DUP2 SUB PUSH0 DUP4 ADD MSTORE PUSH2 0x3C2 DUP2 DUP5 PUSH2 0x372 JUMP JUMPDEST SWAP1 POP SWAP3 SWAP2 POP POP JUMP JUMPDEST PUSH0 DUP2 SWAP1 POP SWAP2 SWAP1 POP JUMP JUMPDEST PUSH2 0x3DC DUP2 PUSH2 0x3CA JUMP JUMPDEST DUP3 MSTORE POP POP JUMP JUMPDEST PUSH0 PUSH1 0x20 DUP3 ADD SWAP1 POP PUSH2 0x3F5 PUSH0 DUP4 ADD DUP5 PUSH2 0x3D3 JUMP JUMPDEST SWAP3 SWAP2 POP POP JUMP JUMPDEST PUSH0 PUSH20 0xFFFFFFFFFFFFFFFFFFFFFFFFFFFFFFFFFFFFFFFF DUP3 AND SWAP1 POP SWAP2 SWAP1 POP JUMP JUMPDEST PUSH0 PUSH2 0x424 DUP3 PUSH2 0x3FB JUMP JUMPDEST SWAP1 POP SWAP2 SWAP1 POP JUMP JUMPDEST PUSH2 0x434 DUP2 PUSH2 0x41A JUMP JUMPDEST DUP3 MSTORE POP POP JUMP JUMPDEST PUSH0 PUSH1 0x20 DUP3 ADD SWAP1 POP PUSH2 0x44D PUSH0 DUP4 ADD DUP5 PUSH2 0x42B JUMP JUMPDEST SWAP3 SWAP2 POP POP JUMP JUMPDEST PUSH0 PUSH0 REVERT JUMPDEST PUSH2 0x460 DUP2 PUSH2 0x3CA JUMP JUMPDEST DUP2 EQ PUSH2 0x46A JUMPI PUSH0 PUSH0 REVERT JUMPDEST POP JUMP JUMPDEST PUSH0 DUP2 CALLDATALOAD SWAP1 POP PUSH2 0x47B DUP2 PUSH2 0x457 JUMP JUMPDEST SWAP3 SWAP2 POP POP JUMP JUMPDEST PUSH0 PUSH1 0x20 DUP3 DUP5 SUB SLT ISZERO PUSH2 0x496 JUMPI PUSH2 0x495 PUSH2 0x453 JUMP JUMPDEST JUMPDEST PUSH0 PUSH2 0x4A3 DUP5 DUP3 DUP6 ADD PUSH2 0x46D JUMP JUMPDEST SWAP2 POP POP SWAP3 SWAP2 POP POP JUMP JUMPDEST PUSH32 0x4E487B7100000000000000000000000000000000000000000000000000000000 PUSH0 MSTORE PUSH1 0x22 PUSH1 0x4 MSTORE PUSH1 0x24 PUSH0 REVERT JUMPDEST PUSH0 PUSH1 0x2 DUP3 DIV SWAP1 POP PUSH1 0x1 DUP3 AND DUP1 PUSH2 0x4F0 JUMPI PUSH1 0x7F DUP3 AND SWAP2 POP JUMPDEST PUSH1 0x20 DUP3 LT DUP2 SUB PUSH2 0x503 JUMPI PUSH2 0x502 PUSH2 0x4AC JUMP JUMPDEST JUMPDEST POP SWAP2 SWAP1 POP JUMP JUMPDEST PUSH32 0x6E6F74206F776E65720000000000000000000000000000000000000000000000 PUSH0 DUP3 ADD MSTORE POP JUMP JUMPDEST PUSH0 PUSH2 0x53D PUSH1 0x9 DUP4 PUSH2 0x344 JUMP JUMPDEST SWAP2 POP PUSH2 0x548 DUP3 PUSH2 0x509 JUMP JUMPDEST PUSH1 0x20 DUP3 ADD SWAP1 POP SWAP2 SWAP1 POP JUMP JUMPDEST PUSH0 PUSH1 0x20 DUP3 ADD SWAP1 POP DUP2 DUP2 SUB PUSH0 DUP4 ADD MSTORE PUSH2 0x56A DUP2 PUSH2 0x531 JUMP JUMPDEST SWAP1 POP SWAP2 SWAP1 POP JUMP INVALID LOG2 PUSH5 0x6970667358 0x22 SLT KECCAK256 SWAP10 0xE8 PUSH15 0x3AECF9B3680D2655D09315FF73AEC7 DUP6 CHAINID PUSH18 0x4D2AFDA9BF0B287BBABFBA64736F6C634300 ADDMOD 0x1E STOP CALLER "
		},
		"gasEstimates": {
			"creation": {
				"codeDepositCost": "289400",
				"executionCost": "infinite",
				"totalCost": "infinite"
			},
			"external": {
				"broker()": "2508",
				"commission()": "infinite",
				"model()": "infinite",
				"newTimePay(uint256)": "24749",
				"owner()": "2574",
				"realEstateAddr()": "2530",
				"timePay()": "2448",
				"valueRealEstate()": "2470"
			}
		},
		"methodIdentifiers": {
			"broker()": "abff0110",
			"commission()": "e1489191",
			"model()": "0ad9d052",
			"newTimePay(uint256)": "e58a4b50",
			"owner()": "8da5cb5b",
			"realEstateAddr()": "cb47ad3c",
			"timePay()": "0b23d860",
			"valueRealEstate()": "1e985e7c"
		}
	},
	"abi": [
		{
			"inputs": [
				{
					"internalType": "address",
					"name": "_owner",
					"type": "address"
				},
				{
					"internalType": "string",
					"name": "_model",
					"type": "string"
				},
				{
					"internalType": "uint256",
					"name": "_valueRealEstate",
					"type": "uint256"
				},
				{
					"internalType": "address",
					"name": "_broker",
					"type": "address"
				},
				{
					"internalType": "uint256",
					"name": "_commission",
					"type": "uint256"
				},
				{
					"internalType": "uint256",
					"name": "_timePay",
					"type": "uint256"
				}
			],
			"stateMutability": "payable",
			"type": "constructor"
		},
		{
			"inputs": [],
			"name": "broker",
			"outputs": [
				{
					"internalType": "address",
					"name": "",
					"type": "address"
				}
			],
			"stateMutability": "view",
			"type": "function"
		},
		{
			"inputs": [],
			"name": "commission",
			"outputs": [
				{
					"internalType": "uint256",
					"name": "",
					"type": "uint256"
				}
			],
			"stateMutability": "view",
			"type": "function"
		},
		{
			"inputs": [],
			"name": "model",
			"outputs": [
				{
					"internalType": "string",
					"name": "",
					"type": "string"
				}
			],
			"stateMutability": "view",
			"type": "function"
		},
		{
			"inputs": [
				{
					"internalType": "uint256",
					"name": "_newTimePay",
					"type": "uint256"
				}
			],
			"name": "newTimePay",
			"outputs": [],
			"stateMutability": "nonpayable",
			"type": "function"
		},
		{
			"inputs": [],
			"name": "owner",
			"outputs": [
				{
					"internalType": "address",
					"name": "",
					"type": "address"
				}
			],
			"stateMutability": "view",
			"type": "function"
		},
		{
			"inputs": [],
			"name": "realEstateAddr",
			"outputs": [
				{
					"internalType": "address",
					"name": "",
					"type": "address"
				}
			],
			"stateMutability": "view",
			"type": "function"
		},
		{
			"inputs": [],
			"name": "timePay",
			"outputs": [
				{
					"internalType": "uint256",
					"name": "",
					"type": "uint256"
				}
			],
			"stateMutability": "view",
			"type": "function"
		},
		{
			"inputs": [],
			"name": "valueRealEstate",
			"outputs": [
				{
					"internalType": "uint256",
					"name": "",
					"type": "uint256"
				}
			],
			"stateMutability": "view",
			"type": "function"
		}
	]
}